:100000000C942A000C94A1010C9447000C94470016
:100010000C9447000C9447000C9447000C94470044
:100020000C9447000C9447000C9447000C94470034
:100030000C9447000C94E7000C9447000C94470084
:100040000C9447000C9447000C9447000C94470014
:100050000C94470011241FBECFE5D8E0DEBFCDBF12
:1000600010E0A0E6B0E0E2E4F8E002C005900D92F6
:10007000AA36B107D9F720E0AAE6B0E001C01D9288
:10008000AA37B207E1F70E943C020C941F040C94BB
:10009000000010928000E1E8F0E08081877E80839C
:1000A00080818460808380818D7F808380818E7F4A
:1000B000808310928500109284001092720010923A
:1000C00073001092740010927500109276001092D6
:1000D00077001092780010927900EFE6F0E08081CE
:1000E000816080830895CF93DF93CDB7DEB72A97E1
:1000F0000FB6F894DEBF0FBECDBF8AE0E0E6F0E0B9
:10010000DE01119601900D928A95E1F790E0298128
:100110003A814B815C812417350781F0209184005E
:1001200030918500FE013196E90FF11DE90FF11DB7
:10013000318320839F5F953050F3E8CF4D815E81FE
:100140002417350759F74F8158852417350731F79C
:1001500049855A852417350709F7C9012A960FB62C
:10016000F894DEBF0FBECDBFDF91CF910895AF925F
:10017000BF92CF92DF92EF92FF920F931F93CF9394
:10018000DF930E947300A0907200B0907300C09043
:100190007400D0907500E0907600F09077000091A8
:1001A0007800109179009C0140E050E060E070E040
:1001B00080E090E00E94BF02DF91CF911F910F91EC
:1001C000FF90EF90DF90CF90BF90AF9008951F9277
:1001D0000F920FB60F9211242F933F934F935F937B
:1001E0006F937F938F939F93209172003091730050
:1001F0004091740050917500609176007091770085
:1002000080917800909179004F5F5F4F6F4F7F4FE3
:100210008F4F9F4F20937200309373004093740070
:100220005093750060937600709377008093780008
:10023000909379009F918F917F916F915F914F91F2
:100240003F912F910F900FBE0F901F90189584B182
:10025000876084B90895CF92DF92EF92FF926B018D
:100260007C0120E030E048EC52E40E94F50287FF78
:1002700018C0289A20E030E048E452E4C701B601F3
:100280000E94F50287FF0EC0299A20E030E040E787
:1002900051E4C701B6010E94F50287FF04C02A9A03
:1002A00003C0289829982A98FF90EF90DF90CF906C
:1002B0000895559A5D9852985A98E89AE9E6F0E0C0
:1002C00080818D7F80838081816080830895AF925B
:1002D000BF92CF92DF92EF92FF920F931F930E94F3
:1002E000B700A0906A00B0906B00C0906C00D090F6
:1002F0006D00E0906E00F0906F0000917000109122
:1003000071000E94C802A12CECEFBE2EF5E8CF2EA2
:10031000D12CE12CF12C00E010E00E9466020E943A
:100320006C0320E034E244E75BE40E94FA021F9190
:100330000F91FF90EF90DF90CF90BF90AF900C9413
:100340002B011F920F920FB60F921124AF92BF9202
:10035000CF92DF92EF92FF920F931F932F933F93D1
:100360004F935F936F937F938F939F93AF93BF93BD
:10037000EF93FF934A991BC00E94B700A0906A00B8
:10038000B0906B00C0906C00D0906D00E0906E005B
:10039000F0906F0000917000109171000E94C802EF
:1003A000A7E00E94DA0219F010F00E9467010E9493
:1003B000B70020936A0030936B0040936C00509319
:1003C0006D0060936E0070936F0080937000909347
:1003D0007100FF91EF91BF91AF919F918F917F91AC
:1003E0006F915F914F913F912F911F910F91FF90CE
:1003F000EF90DF90CF90BF90AF900F900FBE0F9017
:100400001F901895AF92BF92CF92DF92EF92FF921A
:100410000F931F935D9A0E94B70020936A00309358
:100420006B0040936C0050936D0060936E0070936E
:100430006F0080937000909371000E94B700A090AD
:100440006A00B0906B00C0906C00D0906D00E0909E
:100450006E00F0906F0000917000109171000E948A
:10046000D10259F35D981F910F91FF90EF90DF90AB
:10047000CF90BF90AF90089578940E9449000E9459
:1004800059010E9427014A99FECF0E94B700A0900F
:100490006A00B0906B00C0906C00D0906D00E0904E
:1004A0006E00F0906F0000917000109171000E943A
:1004B000C80228303D43410551056105710581059C
:1004C000910509F300F30E940202DDCFDF93CF9381
:1004D0001F930F939A9DF02D219FF00D8B9DF00D92
:1004E0008A9DE02DF10D039FF00D029FE00DF11D9F
:1004F0004E9DE00DF11D5E9DF00D4F9DF00D7F9323
:100500006F93BF92AF925F934F93D5010E94E60223
:100510008B01AC01D7010E94E602EB01E80FF91F45
:10052000D6010E94B6022F913F91D6010E94E602A9
:10053000C60FD71FE81FF91FAF91BF910E94B602E7
:100540002F913F910E94E602C60FD71FE81FF91FA7
:10055000D6010E94E602E60FF71F9801BE01CF0107
:1005600011240F911F91CF91DF9108950E94E6020F
:10057000460F571FC81FD91F08F4319608952A0D3A
:100580003B1D4C1D5D1D6E1D7F1D801F911F08951D
:100590002A193B094C095D096E097F09800B910BF3
:1005A00008952A153B054C055D056E057F058007FE
:1005B000910708950024A7FD00942A1730054005EF
:1005C000500560057005800590050895A29FB00153
:1005D000B39FC001A39F700D811D1124911DB29F77
:1005E000700D811D1124911D08950E94AA0308F425
:1005F00081E008950E940E030C94E5030E94DE033F
:1006000058F00E94D70340F029F45F3F29F00C9482
:10061000CE0351110C9419040C94D4030E94F603D8
:1006200068F39923B1F3552391F3951B550BBB2721
:10063000AA2762177307840738F09F5F5F4F220F66
:10064000331F441FAA1FA9F335D00E2E3AF0E0E85D
:1006500032D091505040E695001CCAF72BD0FE2FA7
:1006600029D0660F771F881FBB1F2617370748073B
:10067000AB07B0E809F0BB0B802DBF01FF279358F3
:100680005F4F3AF09E3F510578F00C94CE030C94E6
:1006900019045F3FE4F3983ED4F386957795679508
:1006A000B795F7959F5FC9F7880F911D9695879528
:1006B00097F90895E1E0660F771F881FBB1F621747
:1006C00073078407BA0720F0621B730B840BBA0B05
:1006D000EE1F88F7E0950895E894F92F96EBFF2335
:1006E00081F0121613061406440B9395F695879520
:1006F0007795679557954040FF23B9F71BC0992719
:100700000895882351F49850D2F7872B762F652FC0
:10071000542F432F322F20E0B1F312161306140684
:10072000440B88233AF09A95440F551F661F771F94
:10073000881FCAF755234AF4440F551F11F460FF70
:1007400004C06F5F7F4F8F4F9F4F880F969587959F
:1007500097F90895990F0008550FAA0BE0E8FEEFEE
:1007600016161706E807F907C0F012161306E40775
:10077000F50798F0621B730B840B950B39F40A266E
:1007800061F0232B242B252B21F408950A2609F44C
:10079000A140A6958FEF811D811D089597F99F6750
:1007A00080E870E060E008959FEF80EC08950024F9
:1007B0000A941616170618060906089500240A94C6
:1007C00012161306140605060895092E0394000C4C
:1007D00011F4882352F0BB0F40F4BF2B11F460FFDB
:1007E00004C06F5F7F4F8F4F9F4F089557FD905804
:1007F000440F551F59F05F3F71F04795880F97FBE5
:10080000991F61F09F3F79F087950895121613069E
:100810001406551FF2CF4695F1DF08C016161706CD
:100820001806991FF1CF8695710561050894089502
:10083000E894BB2766277727CB0197F90895F894AA
:02084000FFCFE8
:0A08420000000100020003000400A2
:00000001FF
