:100000000C9434000C94AB010C9451000C945100EE
:100010000C9451000C9451000C9451000C9451001C
:100020000C9451000C9451000C9451000C9451000C
:100030000C9451000C94F1000C9451000C9451005C
:100040000C9451000C9451000C9451000C945100EC
:100050000C9451000C9451000C9451000C945100DC
:100060000C9451000C94510011241FBECFEFD8E026
:10007000DEBFCDBF11E0A0E0B1E0E6E5F8E002C0F0
:1000800005900D92AA30B107D9F721E0AAE0B1E0BE
:1000900001C01D92AA31B207E1F70E9446020C94FA
:1000A00029040C94000010928000E1E8F0E08081C7
:1000B000877E808380818460808380818D7F808340
:1000C00080818E7F80831092850010928400109230
:1000D0001201109213011092140110921501109246
:1000E0001601109217011092180110921901EFE6F3
:1000F000F0E08081816080830895CF93DF93CDB756
:10010000DEB72A970FB6F894DEBF0FBECDBF8AE0E8
:10011000E0E0F1E0DE01119601900D928A95E1F7A1
:1001200090E029813A814B815C812417350781F069
:100130002091840030918500FE013196E90FF11D78
:10014000E90FF11D318320839F5F953050F3E8CF95
:100150004D815E812417350759F74F815885241743
:10016000350731F749855A852417350709F7C9013D
:100170002A960FB6F894DEBF0FBECDBFDF91CF91A8
:100180000895AF92BF92CF92DF92EF92FF920F93BA
:100190001F93CF93DF930E947D00A0901201B09037
:1001A0001301C0901401D0901501E0901601F09059
:1001B000170100911801109119019C0140E050E0D5
:1001C00060E070E080E090E00E94C902DF91CF9192
:1001D0001F910F91FF90EF90DF90CF90BF90AF9065
:1001E00008951F920F920FB60F9211242F933F93F1
:1001F0004F935F936F937F938F939F9320911201FF
:100200003091130140911401509115016091160134
:100210007091170180911801909119014F5F5F4F04
:100220006F4F7F4F8F4F9F4F2093120130931301D9
:1002300040931401509315016093160170931701B8
:1002400080931801909319019F918F917F916F91E5
:100250005F914F913F912F910F900FBE0F901F9084
:10026000189584B1876084B90895CF92DF92EF9298
:10027000FF926B017C0120E030E048EC52E40E94E8
:10028000FF0287FF18C0289A20E030E048E452E4DB
:10029000C701B6010E94FF0287FF0EC0299A20E025
:1002A00030E040E751E4C701B6010E94FF0287FF3A
:1002B00004C02A9A03C0289829982A98FF90EF90A2
:1002C000DF90CF900895559A5D9852985A98E89A81
:1002D000E9E6F0E080818D7F80838081816080838A
:1002E0000895AF92BF92CF92DF92EF92FF920F9359
:1002F0001F930E94C100A0900A01B0900B01C09012
:100300000C01D0900D01E0900E01F0900F010091D2
:100310001001109111010E94D202A12CECEFBE2E0F
:10032000F5E8CF2ED12CE12CF12C00E010E00E945A
:1003300070020E94760320E034E244E75BE40E940E
:1003400004031F910F91FF90EF90DF90CF90BF902B
:10035000AF900C9435011F920F920FB60F9211249B
:10036000AF92BF92CF92DF92EF92FF920F931F93C3
:100370002F933F934F935F936F937F938F939F93AD
:10038000AF93BF93EF93FF935A991BC00E94C10094
:10039000A0900A01B0900B01C0900C01D0900D010B
:1003A000E0900E01F0900F010091100110911101E9
:1003B0000E94D202A7E00E94E40219F010F00E940D
:1003C00071010E94C10020930A0130930B014093F8
:1003D0000C0150930D0160930E0170930F018093F7
:1003E000100190931101FF91EF91BF91AF919F91F7
:1003F0008F917F916F915F914F913F912F911F91BD
:100400000F91FF90EF90DF90CF90BF90AF900F9043
:100410000FBE0F901F901895AF92BF92CF92DF92B0
:10042000EF92FF920F931F935D9A0E94C100209359
:100430000A0130930B0140930C0150930D0160931E
:100440000E0170930F0180931001909311010E948F
:10045000C100A0900A01B0900B01C0900C01D09097
:100460000D01E0900E01F0900F010091100110912C
:1004700011010E94DB0259F35D981F910F91FF90CB
:10048000EF90DF90CF90BF90AF90089578940E9446
:1004900053000E9463010E9431015A99FECF0E94CD
:1004A000C100A0900A01B0900B01C0900C01D09047
:1004B0000D01E0900E01F0900F01009110011091DC
:1004C00011010E94D20228303D43410551056105CA
:1004D00071058105910509F300F30E940C02DDCF3F
:1004E000DF93CF931F930F939A9DF02D219FF00DD3
:1004F0008B9DF00D8A9DE02DF10D039FF00D029F65
:10050000E00DF11D4E9DE00DF11D5E9DF00D4F9D26
:10051000F00D7F936F93BF92AF925F934F93D5018E
:100520000E94F0028B01AC01D7010E94F002EB01A6
:10053000E80FF91FD6010E94C0022F913F91D6010A
:100540000E94F002C60FD71FE81FF91FAF91BF919D
:100550000E94C0022F913F910E94F002C60FD71F48
:10056000E81FF91FD6010E94F002E60FF71F98015D
:10057000BE01CF0111240F911F91CF91DF910895FA
:100580000E94F002460F571FC81FD91F08F431966A
:1005900008952A0D3B1D4C1D5D1D6E1D7F1D801F86
:1005A000911F08952A193B094C095D096E097F09BD
:1005B000800B910B08952A153B054C055D056E05D2
:1005C0007F058007910708950024A7FD00942A174E
:1005D00030054005500560057005800590050895BB
:1005E000A29FB001B39FC001A39F700D811D112474
:1005F000911DB29F700D811D1124911D08950E94BF
:10060000B40308F481E008950E9418030C94EF03EA
:100610000E94E80358F00E94E10340F029F45F3F94
:1006200029F00C94D80351110C9423040C94DE038C
:100630000E94000468F39923B1F3552391F3951BAD
:10064000550BBB27AA2762177307840738F09F5FF3
:100650005F4F220F331F441FAA1FA9F335D00E2E60
:100660003AF0E0E832D091505040E695001CCAF7CD
:100670002BD0FE2F29D0660F771F881FBB1F261790
:1006800037074807AB07B0E809F0BB0B802DBF0167
:10069000FF2793585F4F3AF09E3F510578F00C9436
:1006A000D8030C9423045F3FE4F3983ED4F386957B
:1006B00077956795B795F7959F5FC9F7880F911D57
:1006C0009695879597F90895E1E0660F771F881F43
:1006D000BB1F621773078407BA0720F0621B730BF6
:1006E000840BBA0BEE1F88F7E0950895E894F92F74
:1006F00096EBFF2381F0121613061406440B939514
:10070000F69587957795679557954040FF23B9F7FC
:100710001BC099270895882351F49850D2F7872B4E
:10072000762F652F542F432F322F20E0B1F312166E
:1007300013061406440B88233AF09A95440F551F6C
:10074000661F771F881FCAF755234AF4440F551FA9
:1007500011F460FF04C06F5F7F4F8F4F9F4F880F72
:100760009695879597F90895990F0008550FAA0B4C
:10077000E0E8FEEF16161706E807F907C0F01216B4
:100780001306E407F50798F0621B730B840B950BB7
:1007900039F40A2661F0232B242B252B21F408950C
:1007A0000A2609F4A140A6958FEF811D811D0895A9
:1007B00097F99F6780E870E060E008959FEF80EC14
:1007C000089500240A9416161706180609060895B7
:1007D00000240A9412161306140605060895092E1D
:1007E0000394000C11F4882352F0BB0F40F4BF2B8C
:1007F00011F460FF04C06F5F7F4F8F4F9F4F0895CC
:1008000057FD9058440F551F59F05F3F71F04795C1
:10081000880F97FB991F61F09F3F79F087950895A6
:10082000121613061406551FF2CF4695F1DF08C0C5
:10083000161617061806991FF1CF869571056105E2
:1008400008940895E894BB2766277727CB0197F98A
:060850000895F894FFCFAB
:0A085600000001000200030004008E
:00000001FF
