:100000000C942A000C9447000C9447000C94470071
:100010000C9447000C9447000C9447000C94470044
:100020000C9447000C94D7000C9447000C944700A4
:100030000C9447000C9447000C9447000C94470024
:100040000C9447000C9447000C9447000C94320326
:100050000C94470011241FBECFE5D8E0DEBFCDBF12
:1000600010E0A0E6B0E0E0E2FAE002C005900D92F8
:10007000AC38B107D9F720E0ACE8B0E001C01D9280
:10008000A63EB207E1F70E9460040C940E050C94A2
:10009000000086B78F7E86BF86B7846A86BF0895C4
:1000A0001FBC8EB5877E8EBD8EB584608EBD8EB52D
:1000B0008D7F8EBD8EB58E7F8EBD1DBC1CBC1092FB
:1000C0009E0010929F001092A0001092A10010922A
:1000D000A2001092A3001092A4001092A50089B76C
:1000E000846089BF78940895AF92BF92CF92DF92D7
:1000F000EF92FF920F931F93CF93DF932FB7F89454
:100100008CB59DB5A0909E00B0909F00C090A000BF
:10011000D090A100E090A200F090A3000091A40074
:100120001091A5002FBF9C0140E050E060E070E01E
:1001300080E090E00E94F004DF91CF911F910F9139
:10014000FF90EF90DF90CF90BF90AF900895AF9267
:10015000BF92CF92DF92EF92FF920F931F93CF93B4
:10016000DF938CB59DB5A0909E00B0909F00C0908D
:10017000A000D090A100E090A200F090A300009118
:10018000A4001091A5009C0140E050E060E070E008
:1001900080E090E00E94F004DF91CF911F910F91D9
:1001A000FF90EF90DF90CF90BF90AF9008951F9297
:1001B0000F920FB60F9211242F933F934F935F939B
:1001C0006F937F938F939F9320919E0030919F0018
:1001D0004091A0005091A1006091A2007091A300F5
:1001E0008091A4009091A5004F5F5F4F6F4F7F4FAC
:1001F0008F4F9F4F20939E0030939F004093A0000D
:100200005093A1006093A2007093A3008093A40078
:100210009093A5009F918F917F916F915F914F91E6
:100220003F912F910F900FBE0F901F9018958091C6
:100230009C008F5F80939C0080919C00803410F024
:1002400010929C00089580919D008F5F80939D0087
:1002500080919D00803410F010929D000895EF92DF
:10026000FF920F931F93CF93DF931FB7F894E09102
:100270009D00F0E0EA55FF4F808320918C00309183
:100280008D0040918E0050918F0060919000709190
:100290009100809192009091930000919D000E94A6
:1002A000D404217030E040E050E060E070E080E095
:1002B00090E0A0E00E94020519F40E94490068C085
:1002C00000919D00E0909400F0909500D0919600F0
:1002D000C0919700B0919800A0919900F0919A0078
:1002E000E0919B0021E030E040E050E060E070E011
:1002F00080E090E00E94B904E22AF32AD42BC52BB7
:10030000B62BA72B8F2B9E2BE0929400F09295009A
:10031000D0939600C0939700B0939800A093990053
:1003200080939A0090939B0000919D00E0908C0038
:10033000F0908D00D0918E00C0918F00B091900010
:10034000A0919100F0919200E091930021E030E0C3
:1003500040E050E060E070E080E090E00E94B9048E
:10036000E22AF32AD42BC52BB62BA72B8F2B9E2B3F
:10037000E0928C00F0928D00D0938E00C0938F009D
:10038000B0939000A093910080939200909393007B
:100390000E9423011FBFDF91CF911F910F91FF900A
:1003A000EF900895FF920F931F93CF93DF93F62E54
:1003B000072F142F880F0E942F01CF2DD02FCE0191
:1003C000810F911D8C01C017D10751F0E0919D0064
:1003D000F0E08991EA55FF4F80830E942301F3CF1B
:1003E00000919D00F0908C0010918D00D0918E00B6
:1003F000C0918F00B0919000A0919100F091920077
:10040000E091930021E030E040E050E060E070E0F7
:1004100080E090E00E94B904F22A132BD42BC52B64
:10042000B62BA72B8F2B9E2BF0928C0010938D0058
:10043000D0938E00C0938F00B0939000A093910052
:100440008093920090939300DF91CF911F910F9131
:10045000FF900895813921E0920714F080E991E03E
:1004600048EE53E0849F9001859F300D949F300D9E
:100470001124032E000C440B550B60E072E18AE757
:1004800090E00E949704C901409797FD079623E0EA
:10049000959587952A95E1F780B981B18C7F81B9CF
:1004A00084E086BF86B7816086BF0895FF920F9370
:1004B0001F93CF93DF9320918C0030918D0040915A
:1004C0008E0050918F00609190007091910080910A
:1004D00092009091930000919C000E94D40421709E
:1004E00030E040E050E060E070E080E090E0A0E0CC
:1004F0000E940205D9F100919C00F0908C001091AF
:100500008D00D0918E00C0918F00B0919000A0918D
:100510009100F0919200E091930021E00E94B904D3
:100520002095309540955095609570958095909563
:10053000F2221323D423C523B623A723F823E923C8
:10054000F0928C0010938D00D0938E00C0938F009A
:10055000B0939000A0939100F0939200E0939300E9
:1005600086B78F7D86BF86B7846986BF2091940049
:1005700030919500409196005091970060919800BD
:100580007091990080919A0090919B0000919C003D
:100590000E94D404217030E040E050E060E070E060
:1005A00080E090E0A0E00E940205E1F100919C0053
:1005B000F090940010919500D0919600C091970012
:1005C000B0919800A0919900F0919A00E0919B0061
:1005D00021E00E94B9042095309540955095609592
:1005E000709580959095F2221323D423C523B623CA
:1005F000A723F823E923F092940010939500D09359
:100600009600C0939700B0939800A0939900F09340
:100610009A00E0939B00DF91CF911F910F91FF9083
:100620000C94490090919C0080919D009817A1F036
:10063000E0919C00F0E0EA55FF4F808183B986B7D6
:100640008F7C86BF86B7846886BFDF91CF911F916C
:100650000F91FF900C941701DF91CF911F910F9193
:10066000FF9008951F920F920FB60F9211242F93AF
:100670003F934F935F936F937F938F939F93AF932A
:10068000BF93EF93FF930E945602FF91EF91BF91AA
:10069000AF919F918F917F916F915F914F913F911A
:1006A0002F910F900FBE0F901F901895CF93DF934F
:1006B00000D000D0CDB7DEB7982F907F292F2460CF
:1006C00029839A8320E1829FC0011124982F94608E
:1006D0009B838C8344E0BE016F5F7F4F87E20E9463
:1006E000D2010F900F900F900F90DF91CF9108954E
:1006F0004F925F926F927F928F929F92AF92BF9232
:10070000CF92DF92EF92FF920F931F93CF93DF93DD
:1007100081E00E9456030E94740029013A014B01B6
:10072000D82FC92F0E9474005201630174010D2F4C
:100730001C2F0E94F904A3E60E94020599F390F38E
:1007400080E8DF91CF911F910F91FF90EF90DF90A4
:10075000CF90BF90AF909F908F907F906F905F9061
:100760004F900C945603CF93DF9300D000D0CDB7B9
:10077000DEB7982F907F292F2560298391609A8377
:1007800020E1829FC0011124982F95609B83816096
:100790008C8344E0BE016F5F7F4F87E20E94D201ED
:1007A0000F900F900F900F90DF91CF9108952F929F
:1007B0003F924F925F926F927F928F929F92AF92F1
:1007C000BF92CF92DF92EF92FF920F931F93CF933E
:1007D000DF9300D01F92CDB7DEB79B838A83912C25
:1007E000EA81FB81E90DF11D80818823C9F00E9417
:1007F000B3030E94740019012A013B01882E9983DA
:100800000E947400510162017301082D19810E9438
:10081000F904A3E10E94020599F390F39394E0CFC9
:100820000F900F900F90DF91CF911F910F91FF903C
:10083000EF90DF90CF90BF90AF909F908F907F9080
:100840006F905F904F903F902F9008950F931F935C
:10085000CF93DF938C0128E0629FC0011124806454
:100860000E945603E801085F1F4F89910E94B3035D
:10087000C017D107D1F7DF91CF911F910F91089544
:1008800084E190E00C942A020E9440040E947400CB
:1008900020373240410551056105710581059105FB
:1008A000A9F3A0F382E00E94560388E20E94560357
:1008B0008CE00E94560386E00E9456030C94780355
:1008C0000E9450000E94440488E690E00E94D703F2
:1008D00080EC0E9456038EE690E00E94D7030E94AF
:1008E000740029013A014B01D82FC92F0E947400CE
:1008F0005201630174010D2F1C2F0E94F9042F393E
:10090000364841405105610571058105910571F336
:1009100068F30E94780385E790E00E94D70380EC9B
:100920000E94560381E890E00E94D703FFCFA1E226
:100930001A2EAA1BBB1BFD010DC0AA1FBB1FEE1F59
:10094000FF1FA217B307E407F50720F0A21BB30BA4
:10095000E40BF50B661F771F881F991F1A9469F720
:1009600060957095809590959B01AC01BD01CF017C
:1009700008950F93083090F0982F872F762F652FCA
:10098000542F432F322F22270850F4CF220F331F2A
:10099000441F551F661F771F881F991F0A95B2F7BE
:1009A0000F91089597FB10F8169400080F930830E4
:1009B00098F00850232F342F452F562F672F782F6C
:1009C000892F902DF4CF0594979587957795679506
:1009D00057954795379527950A95AAF70F9108954A
:1009E0002A0D3B1D4C1D5D1D6E1D7F1D801F911F1F
:1009F00008952A193B094C095D096E097F09800B8E
:100A0000910B08950024A7FD00942A173005400596
:100A1000500560057005800590050895F894FFCF96
:100A2000050105010400040048656C6C6F00576FF8
:100A3000726C642100416C76796E655A207761731F
:0C0A400000202020486572652121000084
:00000001FF
