:100000000C942A000C9447000C9447000C94470071
:100010000C9447000C9447000C9447000C94470044
:100020000C9447000C94EE000C9447000C9447008D
:100030000C9447000C9447000C9447000C94470024
:100040000C9447000C9447000C9447000C94470014
:100050000C94470011241FBECFE5D8E0DEBFCDBF12
:1000600010E0A0E6B0E0E0EDFAE002C005900D92ED
:10007000A438B107D9F720E0A4E8B0E001C01D9290
:10008000AC38B207E1F70E94D9040C9466050C94D1
:10009000000086B78F7D846986BF06B604FCFDCF5D
:1000A00008951FBC8EB5877E8EBD8EB584608EBDD3
:1000B0008EB58D7F8EBD8EB58E7F8EBD1DBC1CBC5A
:1000C0001092840010928500109286001092870092
:1000D000109288001092890010928A0010928B0072
:1000E00089B7846089BF78940895AF92BF92CF9208
:1000F000DF92EF92FF920F931F93CF93DF932FB76F
:10010000F8948CB59DB5A0908400B0908500C09007
:100110008600D0908700E0908800F09089000091E0
:100120008A0010918B002FBF9C0140E050E060E0FE
:1001300070E080E090E00E943905DF91CF911F913F
:100140000F91FF90EF90DF90CF90BF90AF90089508
:10015000AF92BF92CF92DF92EF92FF920F931F93D5
:10016000CF93DF938CB59DB5A0908400B0908500AF
:10017000C0908600D0908700E0908800F0908900C1
:1001800000918A0010918B009C0140E050E060E0FB
:1001900070E080E090E00E943905DF91CF911F91DF
:1001A0000F91FF90EF90DF90CF90BF90AF900895A8
:1001B0008FB7F8941DBC1CBC10928400109285006F
:1001C0001092860010928700109288001092890089
:1001D00010928A0010928B008FBF08951F920F9289
:1001E0000FB60F9211242F933F934F935F936F930A
:1001F0007F938F939F93209184003091850040914D
:1002000086005091870060918800709189008091EC
:100210008A0090918B004F5F5F4F6F4F7F4F8F4FE2
:100220009F4F209384003093850040938600509325
:100230008700609388007093890080938A00909370
:100240008B009F918F917F916F915F914F913F9123
:100250002F910F900FBE0F901F90189586B78F7E2D
:10026000846A86BF06B607FEFDCF91B1987F9830AD
:1002700019F081E0903109F480E00895CF93C6E150
:100280000E942E01882319F0C150D1F781E0CF914F
:10029000089583B986B78F7C846886BF06B607FE4B
:1002A000FDCF81B1887F883141F0883231F08034D0
:1002B00021F0883321F081E0089580E0089582E004
:1002C0000895CF92DF92FF920F931F93CF93DF9306
:1002D000182F6B01F42ED0E00E943E01811127C03F
:1002E000110F812F0E944901811114C000E0C0E06C
:1002F00005C0882311F0C1500F5FCF5FCF1570F498
:10030000053090F4F601EC0FF11D80810E94490147
:10031000823079F70E944900DF5F06C0CF1104C028
:100320000E94490080E003C0DA30B1F681E0DF913D
:10033000CF911F910F91FF90DF90CF90089596B7C6
:10034000882311F09F7802C09F7C9064946896BFC8
:1003500006B607FEFDCF83B10895EF92FF920F938B
:100360001F93CF93DF93082FEB01142F411102C08D
:1003700081E02BC08AE0F82E0E943E01811125C049
:10038000000F0160802F0E944901882331F00E94F4
:100390004900FA94F110F0CFEBCF11500C2FEC2E56
:1003A000FD2E8E2D801B811738F480E00E949F0166
:1003B000F70181937F01F5CFC10FD11D81E00E942C
:1003C0009F0188830E94490080E0DF91CF911F91B7
:1003D0000F91FF90EF900895813921E0920714F07A
:1003E00080E991E028EE33E0DC010E9432059B01B8
:1003F000AC0160E072E18AE790E00E941005DA014A
:10040000C9014097A109B109B695A7959795879518
:1004100080B981B18C7F81B90895CF93DF931F920A
:10042000CDB7DEB788E0809360008091600089835B
:1004300041E0BE016F5F7F4F87E20E9461010F9034
:10044000DF91CF910895CF93DF931F92CDB7DEB7A1
:100450001092600080916000898341E0BE016F5F6F
:100460007F4F87E20E9461010F90DF91CF91089545
:100470002F923F924F925F926F927F928F929F92B4
:10048000AF92BF92CF92DF92EF92FF920F931F93A2
:10049000CF93DF9300D000D0CDB7DEB7809160005E
:1004A000826F8B8380916000866F8C8341E0BE01F8
:1004B0006D5F7F4F87E20E9461010E947500190104
:1004C0002A013B014C010E94750051016201730138
:1004D00084010E944205A1E00E944B05A1F398F31C
:1004E00041E0BE016C5F7F4F87E20E9461010E9484
:1004F000750019012A013B014C010E947500510150
:100500006201730184010E944205A1E00E944B0533
:10051000A1F398F341E0BE016F5F7F4F87E20E9435
:10052000AD01882311F08FEF5EC041E0BE016D5F29
:100530007F4F87E20E9461010E94750019012A0124
:100540003B014C010E94750051016201730184015D
:100550000E944205A1E00E944B05A1F398F341E0FF
:10056000BE016C5F7F4F87E20E9461010E947500AF
:1005700019012A013B014C010E94750051016201E1
:10058000730184010E944205A1E00E944B05A1F382
:1005900098F341E0BE016E5F7F4F87E20E94AD019C
:1005A0008111C1CF41E0BE016D5F7F4F87E20E94A4
:1005B00061010E94750019012A013B014C010E9452
:1005C000750051016201730184010E944205A1E09E
:1005D0000E944B05A1F398F38981982F90788A8126
:1005E00082958F70892B0F900F900F900F90DF9155
:1005F000CF911F910F91FF90EF90DF90CF90BF9020
:10060000AF909F908F907F906F905F904F903F90B2
:100610002F9008954F925F926F927F928F929F9248
:10062000AF92BF92CF92DF92EF92FF920F931F9300
:10063000CF93DF930E94750029013A014B01D82F17
:10064000C92F0E9475005201630174010D2F1C2FE8
:100650000E9442052F393648414051056105710518
:100660008105910509F028F40E94380287FF02C035
:10067000E8CF80E0DF91CF911F910F91FF90EF9035
:10068000DF90CF90BF90AF909F908F907F906F90B2
:100690005F904F9008952F923F924F925F926F928A
:1006A0007F928F929F92AF92BF92CF92DF92EF9202
:1006B000FF920F931F93CF93DF9300D01F92CDB77C
:1006C000DEB78295807F30916000382B398320918E
:1006D0006000282B922F94609A8390916000892B60
:1006E0008B83662331F03160398325602A838160F2
:1006F0008B8343E0BE016F5F7F4F87E20E94610101
:100700000E94750019012A013B014C010E947500ED
:1007100051016201730184010E944205A1E00E941F
:100720004B05A1F398F30F900F900F90DF91CF91AD
:100730001F910F91FF90EF90DF90CF90BF90AF90FF
:100740009F908F907F906F905F904F903F902F90F1
:100750000895CF93C82F0E940A0360E08C2F8295E2
:100760008F700E944B0360E08C2F8F70CF910C94A0
:100770004B034F925F926F927F928F929F92AF92B4
:10078000BF92CF92DF92EF92FF920F931F93CF937E
:10079000DF9381E00E94A9030E94750029013A01BC
:1007A0004B01D82FC92F0E947500520163017401BB
:1007B0000D2F1C2F0E944205AEE30E944B0599F3BA
:1007C00090F3DF91CF911F910F91FF90EF90DF9009
:1007D000CF90BF90AF909F908F907F906F905F90E1
:1007E0004F9008954F925F926F927F928F929F9257
:1007F000AF92BF92CF92DF92EF92FF920F931F932F
:10080000CF93DF9382E00E94A9030E947500290123
:100810003A014B01D82FC92F0E9475005201630184
:1008200074010D2F1C2F0E944205AEE30E944B0560
:1008300099F390F3DF91CF911F910F91FF90EF907B
:10084000DF90CF90BF90AF909F908F907F906F90F0
:100850005F904F900895CF93C82F0E940A0361E0E4
:100860008C2F82958F700E944B0361E08C2F8F70CC
:10087000CF910C944B030F931F93CF938C01C0E047
:10088000F801EC0FF11D8081882321F00E942B04D8
:10089000CF5FF6CFCF911F910F9108950F931F93C4
:1008A000CF93DF938C0128E0629FC0011124806404
:1008B0000E94A903E801085F1F4F89910E942B0441
:1008C000C017D107D1F7DF91CF911F910F910895F4
:1008D00084E690E00C94EC010E9468040E94D80029
:1008E0000E9475002A3136404105510561057105A8
:1008F00081059105A9F3A0F30E940D020E94D80082
:100900000E94750024333C40410551056105710585
:1009100081059105A9F3A0F360E083E00E944B03F9
:100920000E94D8000E9475002B3831054105510501
:100930006105710581059105A9F3A0F360E083E0ED
:100940000E944B030E94D8000E9475002B3831058D
:10095000410551056105710581059105A9F3A0F3D4
:1009600060E083E00E944B030E94D8000E94750063
:10097000A4E00E944B05D1F3C8F360E082E00E943E
:100980004B030E94D8000E947500A1E00E944B0515
:10099000D1F3C8F388E20E94A9038CE00E94A90366
:1009A0000E94B90386E00E94A9030E94F2030C94FE
:1009B0000D020E9451000E946C0481E690E00E94AA
:1009C0003B0480EC0E94A90387E690E00E943B0470
:1009D0000E94750029013A014B01D82FC92F0E94AE
:1009E00075005201630174010D2F1C2F0E944205F6
:1009F0002F39364841405105610571058105910542
:100A000071F368F30E94B9038EE690E00E943B0404
:100A100080EC0E94A9038AE790E00E943B04FFCF8C
:100A2000A1E21A2EAA1BBB1BFD010DC0AA1FBB1FF2
:100A3000EE1FFF1FA217B307E407F50720F0A21B64
:100A4000B30BE40BF50B661F771F881F991F1A94D1
:100A500069F760957095809590959B01AC01BD01FB
:100A6000CF0108950E945705B7FF0895821B930B8D
:100A700008952A0D3B1D4C1D5D1D6E1D7F1D801FA1
:100A8000911F08952A193B094C095D096E097F09D8
:100A9000800B910B08950024A7FD00942A173005C0
:100AA0004005500560057005800590050895A29FDA
:100AB000B001B39FC001A39F700D811D1124911D32
:100AC000B29F700D811D1124911D0895F894FFCFE0
:100AD0000848656C6C6F00576F726C642100416C44
:100AE00076796E655A207761730020202048657200
:040AF000652121005B
:00000001FF
