:100000000C942A000C9447000C94DF020C944700D7
:100010000C9447000C9447000C9447000C94470044
:100020000C9447000C94D0000C9447000C944700AB
:100030000C9447000C9447000C9447000C94470024
:100040000C9447000C9447000C9447000C94470014
:100050000C94470011241FBECFE5D8E0DEBFCDBF12
:1000600010E0A0E6B0E0EAE7FAE002C005900D92E9
:10007000A836B107D9F720E0A8E6B0E001C01D928C
:10008000A538B207E1F70E9442030C943B050C949B
:1000900000001FBC8EB5877E8EBD8EB584608EBD80
:1000A0008EB58D7F8EBD8EB58E7F8EBD1DBC1CBC6A
:1000B00010927D0010927E0010927F0010928000BE
:1000C000109281001092820010928300109284009E
:1000D00089B7846089BF78940895AF92BF92CF9218
:1000E000DF92EF92FF920F931F93CF93DF932FB77F
:1000F000F8948CB59DB5A0907D00B0907E00C09026
:100100007F00D0908000E0908100F090820000910C
:100110008300109184002FBF9C0140E050E060E01C
:1001200070E080E090E00E94BA03DF91CF911F91D0
:100130000F91FF90EF90DF90CF90BF90AF90089518
:10014000AF92BF92CF92DF92EF92FF920F931F93E5
:10015000CF93DF938CB59DB5A0907D00B0907E00CD
:10016000C0907F00D0908000E0908100F0908200ED
:1001700000918300109184009C0140E050E060E019
:1001800070E080E090E00E94BA03DF91CF911F9170
:100190000F91FF90EF90DF90CF90BF90AF900895B8
:1001A0001F920F920FB60F9211242F933F934F93EC
:1001B0005F936F937F938F939F9320917D003091F6
:1001C0007E0040917F00509180006091810070918D
:1001D000820080918300909184004F5F5F4F6F4F4A
:1001E0007F4F8F4F9F4F20937D0030937E00409331
:1001F0007F00509380006093810070938200809311
:100200008300909384009F918F917F916F915F9174
:100210004F913F912F910F900FBE0F901F90189507
:10022000A39AAB988B9893988BB780688BBF85B750
:10023000877F85BF85B7846085BF089582B3869523
:100240008695869591E08927817090E00895AF9218
:10025000BF92CF92DF92EF92FF920F931F93AB9AD0
:100260000E946D00209375003093760040937700D4
:10027000509378006093790070937A0080937B00AC
:1002800090937C000E946D00A0907500B090760065
:10029000C0907700D0907800E0907900F0907A00DC
:1002A00000917B0010917C000E94CC0359F3AB9825
:1002B0000E946D0020937500309376004093770084
:1002C000509378006093790070937A0080937B005C
:1002D00090937C001F910F91FF90EF90DF90CF9053
:1002E000BF90AF900895AF92BF92CF92DF92EF92FE
:1002F000FF920F931F930E941E01892B41F10E94D0
:100300006D00A0907500B0907600C0907700D090FE
:100310007800E0907900F0907A0000917B001091D5
:100320007C000E94C3032F3037424105510561050F
:1003300071058105910559F050F01F910F91FF90C3
:10034000EF90DF90CF90BF90AF900C9427011F915A
:100350000F91FF90EF90DF90CF90BF90AF900895F6
:100360008FEF8ABB1BBA87B38F6087BB88B38F6060
:1003700088BB0895853391F1A4F4803339F144F4B6
:100380008332D1F18A32B1F1811138C08FEF37C099
:10039000823301F1ECF08333F9F0843379F589E9A4
:1003A0002EC0893309F12CF48733D1F0DCF482E8D4
:1003B00026C08234D9F024F4813401F588E81FC0C6
:1003C0008334B1F08434D1F481EA19C080EC17C0D1
:1003D00089EF15C084EA13C080EB11C082E90FC019
:1003E00088EF0DC080E80BC080E909C083E807C032
:1003F00086EC05C08EED03C08CE901C086EB8BBB9B
:100400000895AF92BF92CF92DF92EF92FF920F9337
:100410001F930E946D00A0906900B0906A00C09088
:100420006B00D0906C00E0906D00F0906E00009139
:100430006F00109170000E94C303A3E60E94D503D1
:10044000A1F198F1809168008F5F843018F4809357
:10045000680002C01092680088B3807F88BB28B310
:1004600081E090E00090680002C0880F991F0A9414
:10047000E2F7822B88BBE0916800F0E0EF58FF4F75
:1004800080810E94BA010E946D0020936900309320
:100490006A0040936B0050936C0060936D00709302
:1004A0006E0080936F00909370001F910F91FF90EA
:1004B000EF90DF90CF90BF90AF9008950E947604A8
:1004C000FB01CB0168EE73E00E944D0361157105DD
:1004D00021F41092710020E004C0605D609371000F
:1004E00021E0CF0168EE73E00E944D03FC0164E659
:1004F00070E00E944D036115710529F4211103C0BC
:100500001092720004C0605D6093720021E0CF0120
:1005100064E670E00E944D03FC016AE070E00E9416
:100520004D036115710529F4211103C01092730068
:1005300003C0605D60937300CF016AE070E00E94C9
:100540004D03805D809374000895AF92BF92CF9267
:10055000DF92EF92FF920F931F930E946D00A09085
:100560007500B0907600C0907700D0907800E09051
:100570007900F0907A0000917B0010917C000E943D
:10058000C303A12CECEFBE2EF5E8CF2ED12CE12C2D
:10059000F12C00E010E00E9461030E94AC0420E016
:1005A00034E244E75BE40E9404041F910F91FF9042
:1005B000EF90DF90CF90BF90AF900C945E021F92AF
:1005C0000F920FB60F921124AF92BF92CF92DF928B
:1005D000EF92FF920F931F932F933F934F935F934D
:1005E0006F937F938F939F93AF93BF93EF93FF93FB
:1005F0000E941E01892BD9F00E94A000A0907500D6
:10060000B0907600C0907700D0907800E0907900AC
:10061000F0907A0000917B0010917C000E94C3034F
:10062000A7E00E94D50319F010F00E94A5020E94D5
:10063000A00020937500309376004093770050938C
:1006400078006093790070937A0080937B00909398
:100650007C00FF91EF91BF91AF919F918F917F911E
:100660006F915F914F913F912F911F910F91FF904B
:10067000EF90DF90CF90BF90AF900F900FBE0F9094
:100680001F9018950E9449000E9410010E94B0011D
:100690000E9473010E940102FBCF97FB072E16F404
:1006A000009407D077FD09D00E94E10307FC05D034
:1006B0003EF4909581959F4F0895709561957F4F79
:1006C0000895DF93CF931F930F939A9DF02D219F51
:1006D000F00D8B9DF00D8A9DE02DF10D039FF00D27
:1006E000029FE00DF11D4E9DE00DF11D5E9DF00D90
:1006F0004F9DF00D7F936F93BF92AF925F934F9397
:10070000D5010E94F5038B01AC01D7010E94F503CE
:10071000EB01E80FF91FD6010E94B1032F913F9121
:10072000D6010E94F503C60FD71FE81FF91FAF912E
:10073000BF910E94B1032F913F910E94F503C60F14
:10074000D71FE81FF91FD6010E94F503E60FF71F18
:100750009801BE01CF0111240F911F91CF91DF911C
:1007600008950E94F503460F571FC81FD91F08F4AC
:10077000319608952A0D3B1D4C1D5D1D6E1D7F1D7C
:10078000801F911F08952A193B094C095D096E09C4
:100790007F09800B910B08952A153B054C055D05DB
:1007A0006E057F058007910708950024A7FD00943A
:1007B0002A17300540055005600570058005900535
:1007C0000895AA1BBB1B51E107C0AA1FBB1FA61798
:1007D000B70710F0A61BB70B881F991F5A95A9F7EA
:1007E00080959095BC01CD010895A29FB001B39F63
:1007F000C001A39F700D811D1124911DB29F700D2A
:10080000811D1124911D08950E9418040C94010566
:100810000E94FA0458F00E94F30440F029F45F3F6C
:1008200029F00C94EA0451110C9435050C94F00451
:100830000E94120568F39923B1F3552391F3951B98
:10084000550BBB27AA2762177307840738F09F5FF1
:100850005F4F220F331F441FAA1FA9F335D00E2E5E
:100860003AF0E0E832D091505040E695001CCAF7CB
:100870002BD0FE2F29D0660F771F881FBB1F26178E
:1008800037074807AB07B0E809F0BB0B802DBF0165
:10089000FF2793585F4F3AF09E3F510578F00C9434
:1008A000EA040C9435055F3FE4F3983ED4F3869553
:1008B00077956795B795F7959F5FC9F7880F911D55
:1008C0009695879597F90895E1E0660F771F881F41
:1008D000BB1F621773078407BA0720F0621B730BF4
:1008E000840BBA0BEE1F88F7E09508950E947D04F3
:1008F0006894B1110C94350508950E941A0588F08A
:100900009F5798F0B92F9927B751B0F0E1F0660FD3
:10091000771F881F991F1AF0BA95C9F714C0B13014
:1009200091F00E943405B1E008950C943405672FCE
:10093000782F8827B85F39F0B93FCCF38695779543
:100940006795B395D9F73EF490958095709561952C
:100950007F4F8F4F9F4F0895E894F92F96EBFF2319
:1009600081F0121613061406440B9395F69587959D
:100970007795679557954040FF23B9F71BC0992796
:100980000895882351F49850D2F7872B762F652F3E
:10099000542F432F322F20E0B1F312161306140602
:1009A000440B88233AF09A95440F551F661F771F12
:1009B000881FCAF755234AF4440F551F11F460FFEE
:1009C00004C06F5F7F4F8F4F9F4F880F969587951D
:1009D00097F9089597F99F6780E870E060E00895BF
:1009E0009FEF80EC089500240A9416161706180647
:1009F0000906089500240A94121613061406050623
:100A00000895092E0394000C11F4882352F0BB0FB3
:100A100040F4BF2B11F460FF04C06F5F7F4F8F4F16
:100A20009F4F089557FD9058440F551F59F05F3F51
:100A300071F04795880F97FB991F61F09F3F79F000
:100A400087950895121613061406551FF2CF469582
:100A5000F1DF08C0161617061806991FF1CF869504
:100A60007105610508940895E894BB2766277727E8
:0A0A7000CB0197F90895F894FFCF29
:080A7A00640000000000000010
:00000001FF
