:100000000C942A000C9498010C9447000C9447001F
:100010000C9447000C9447000C9447000C94470044
:100020000C9447000C94DE000C9447000C9447009D
:100030000C9447000C9447000C9447000C94470024
:100040000C9447000C9447000C9447000C94470014
:100050000C94470011241FBECFE5D8E0DEBFCDBF12
:1000600010E0A0E6B0E0E4E5F8E002C005900D92F3
:10007000AA36B107D9F720E0AAE6B0E001C01D9288
:10008000AA37B207E1F70E9445020C9428040C94A9
:1000900000001FBC8EB5877E8EBD8EB584608EBD80
:1000A0008EB58D7F8EBD8EB58E7F8EBD1DBC1CBC6A
:1000B00010927200109273001092740010927500EA
:1000C00010927600109277001092780010927900CA
:1000D00089B7846089BF0895CF93DF93CDB7DEB72A
:1000E0002A970FB6F894DEBF0FBECDBF8AE0E0E6D8
:1000F000F0E0DE01119601900D928A95E1F790E013
:1001000029813A814B815C812417350771F02CB528
:100110003DB5FE013196E90FF11DE90FF11D318367
:1001200020839F5F953060F3EACF4D815E81241775
:10013000350769F74F8158852417350741F74985F9
:100140005A852417350719F7C9012A960FB6F8946E
:10015000DEBF0FBECDBFDF91CF910895AF92BF92AA
:10016000CF92DF92EF92FF920F931F93CF93DF9383
:100170000E946C00A0907200B0907300C090740058
:10018000D0907500E0907600F090770000917800B4
:10019000109179009C0140E050E060E070E080E068
:1001A00090E00E94C802DF91CF911F910F91FF90C4
:1001B000EF90DF90CF90BF90AF9008951F920F9275
:1001C0000FB60F9211242F933F934F935F936F932A
:1001D0007F938F939F932091720030917300409191
:1001E0007400509175006091760070917700809155
:1001F0007800909179004F5F5F4F6F4F7F4F8F4F27
:100200009F4F20937200309373004093740050937B
:1002100075006093760070937700809378009093D8
:1002200079009F918F917F916F915F914F913F9155
:100230002F910F900FBE0F901F90189587B3876076
:1002400087BB0895CF92DF92EF92FF926B017C0102
:1002500020E030E048EC52E40E94FE0287FF18C024
:10026000C09A20E030E048E452E4C701B6010E94A1
:10027000FE0287FF0EC0C19A20E030E040E751E463
:10028000C701B6010E94FE0287FF04C0C29A03C0E4
:10029000C098C198C298FF90EF90DF90CF900895DA
:1002A0008E9A96988A9892988BB780648BBF85B700
:1002B0008D7F85BF85B7816085BF0895AF92BF925E
:1002C000CF92DF92EF92FF920F931F930E94AE00A6
:1002D000A0906A00B0906B00C0906C00D0906D0050
:1002E000E0906E00F0906F0000917000109171002E
:1002F0000E94D102A12CECEFBE2EF5E8CF2ED12C1E
:10030000E12CF12C00E010E00E946F020E947503C6
:1003100020E034E244E75BE40E9403031F910F9165
:10032000FF90EF90DF90CF90BF90AF900C942201A0
:100330001F920F920FB60F921124AF92BF92CF92DD
:10034000DF92EF92FF920F931F932F933F934F9360
:100350005F936F937F938F939F93AF93BF93EF932D
:10036000FF9392991BC00E94AE00A0906A00B090CB
:100370006B00C0906C00D0906D00E0906E00F0902B
:100380006F0000917000109171000E94D102A7E0EF
:100390000E94E30219F010F00E945E010E94AE007C
:1003A00020936A0030936B0040936C0050936D0073
:1003B00060936E0070936F00809370009093710053
:1003C000FF91EF91BF91AF919F918F917F916F912D
:1003D0005F914F913F912F911F910F91FF90EF905F
:1003E000DF90CF90BF90AF900F900FBE0F901F90F7
:1003F0001895AF92BF92CF92DF92EF92FF920F9338
:100400001F93969A0E94AE0020936A0030936B006F
:1004100040936C0050936D0060936E0070936F007A
:1004200080937000909371000E94AE00A0906A00CB
:10043000B0906B00C0906C00D0906D00E0906E00AA
:10044000F0906F0000917000109171000E94DA022C
:1004500059F396980E94AE0020936A0030936B0087
:1004600040936C0050936D0060936E0070936F002A
:1004700080937000909371001F910F91FF90EF9007
:10048000DF90CF90BF90AF90089578940E9449007C
:100490000E9450010E941E019299FECF0E94AE0060
:1004A000A0906A00B0906B00C0906C00D0906D007E
:1004B000E0906E00F0906F0000917000109171005C
:1004C0000E94D10228303D43410551056105710567
:1004D0008105910509F300F30E94F901DDCFDF9357
:1004E000CF931F930F939A9DF02D219FF00D8B9D1D
:1004F000F00D8A9DE02DF10D039FF00D029FE00DA0
:10050000F11D4E9DE00DF11D5E9DF00D4F9DF00D16
:100510007F936F93BF92AF925F934F93D5010E94E9
:10052000EF028B01AC01D7010E94EF02EB01E80F53
:10053000F91FD6010E94BF022F913F91D6010E9460
:10054000EF02C60FD71FE81FF91FAF91BF910E949E
:10055000BF022F913F910E94EF02C60FD71FE81FE5
:10056000F91FD6010E94EF02E60FF71F9801BE01A6
:10057000CF0111240F911F91CF91DF9108950E9417
:10058000EF02460F571FC81FD91F08F43196089570
:100590002A0D3B1D4C1D5D1D6E1D7F1D801F911F73
:1005A00008952A193B094C095D096E097F09800BE2
:1005B000910B08952A153B054C055D056E057F05D9
:1005C0008007910708950024A7FD00942A1730059D
:1005D0004005500560057005800590050895A29FAF
:1005E000B001B39FC001A39F700D811D1124911D07
:1005F000B29F700D811D1124911D08950E94B303B7
:1006000008F481E008950E9417030C94EE030E9401
:10061000E70358F00E94E00340F029F45F3F29F01F
:100620000C94D70351110C9422040C94DD030E9406
:10063000FF0368F39923B1F3552391F3951B550BF1
:10064000BB27AA2762177307840738F09F5F5F4FA5
:10065000220F331F441FAA1FA9F335D00E2E3AF0E4
:10066000E0E832D091505040E695001CCAF72BD0FC
:10067000FE2F29D0660F771F881FBB1F261737074D
:100680004807AB07B0E809F0BB0B802DBF01FF277F
:1006900093585F4F3AF09E3F510578F00C94D70382
:1006A0000C9422045F3FE4F3983ED4F3869577954B
:1006B0006795B795F7959F5FC9F7880F911D969538
:1006C000879597F90895E1E0660F771F881FBB1F94
:1006D000621773078407BA0720F0621B730B840B41
:1006E000BA0BEE1F88F7E0950895E894F92F96EB82
:1006F000FF2381F0121613061406440B9395F6950A
:1007000087957795679557954040FF23B9F71BC0AC
:1007100099270895882351F49850D2F7872B762F84
:10072000652F542F432F322F20E0B1F312161306FA
:100730001406440B88233AF09A95440F551F661F00
:10074000771F881FCAF755234AF4440F551F11F429
:1007500060FF04C06F5F7F4F8F4F9F4F880F96954C
:10076000879597F90895990F0008550FAA0BE0E8AF
:10077000FEEF16161706E807F907C0F01216130663
:10078000E407F50798F0621B730B840B950B39F4A3
:100790000A2661F0232B242B252B21F408950A2609
:1007A00009F4A140A6958FEF811D811D089597F949
:1007B0009F6780E870E060E008959FEF80EC089507
:1007C00000240A9416161706180609060895002430
:1007D0000A9412161306140605060895092E0394AA
:1007E000000C11F4882352F0BB0F40F4BF2B11F41E
:1007F00060FF04C06F5F7F4F8F4F9F4F089557FD7D
:100800009058440F551F59F05F3F71F04795880F7E
:1008100097FB991F61F09F3F79F087950895121615
:1008200013061406551FF2CF4695F1DF08C01616C1
:1008300017061806991FF1CF869571056105089472
:100840000895E894BB2766277727CB0197F9089589
:04085000F894FFCF4A
:0A0854000000010002000300040090
:00000001FF
