:100000000C942A000C9447000C9447000C94470071
:100010000C9447000C9447000C9447000C94470044
:100020000C9447000C94D0000C9447000C944700AB
:100030000C9447000C9447000C9447000C94470024
:100040000C9447000C9447000C9447000C94470014
:100050000C94470011241FBECFE5D8E0DEBFCDBF12
:1000600010E0A0E6B0E0E0E7F6E002C005900D92F7
:10007000A038B107D9F720E0A0E8B0E001C01D9298
:10008000A73AB207E1F70E940D030C9436030C94D3
:1000900000001FBC8EB5877E8EBD8EB584608EBD80
:1000A0008EB58D7F8EBD8EB58E7F8EBD1DBC1CBC6A
:1000B00010929F001092A0001092A1001092A20036
:1000C0001092A3001092A4001092A5001092A60016
:1000D00089B7846089BF78940895AF92BF92CF9218
:1000E000DF92EF92FF920F931F93CF93DF932FB77F
:1000F000F8948CB59DB5A0909F00B090A000C090E2
:10010000A100D090A200E090A300F090A400009184
:10011000A5001091A6002FBF9C0140E050E060E0D8
:1001200070E080E090E00E941803DF91CF911F9172
:100130000F91FF90EF90DF90CF90BF90AF90089518
:10014000AF92BF92CF92DF92EF92FF920F931F93E5
:10015000CF93DF938CB59DB5A0909F00B090A00089
:10016000C090A100D090A200E090A300F090A40065
:100170000091A5001091A6009C0140E050E060E0D5
:1001800070E080E090E00E941803DF91CF911F9112
:100190000F91FF90EF90DF90CF90BF90AF900895B8
:1001A0001F920F920FB60F9211242F933F934F93EC
:1001B0005F936F937F938F939F9320919F003091D4
:1001C000A0004091A1005091A2006091A300709105
:1001D000A4008091A5009091A6004F5F5F4F6F4FE4
:1001E0007F4F8F4F9F4F20939F003093A0004093ED
:1001F000A1005093A2006093A3007093A400809389
:10020000A5009093A6009F918F917F916F915F9130
:100210004F913F912F910F900FBE0F901F90189507
:1002200081B38F7081BB82B38F7082BB84B38F70B8
:1002300084BB85B3806F85BB0895CF93DF93A0E81F
:10024000B0E064E070E080E0C1E0D0E021B3AE0156
:10025000062E01C0440F0A94EAF7242B21BB22B3D7
:10026000942F9095292322BB24E030E043B350E043
:10027000022E02C0559547950A94E2F740FD2AC028
:1002800080918D00843028F081B3982391BB81E068
:1002900030C0F9017497EA0FFB1F808140918E00F6
:1002A0008417B9F040918F00841799F04091900025
:1002B000841779F040919100841759F0E0918D00F6
:1002C000F0E0E257FF4F808380918D008F5F809335
:1002D0008D0081E02F5F3F4F2830310539F621B383
:1002E000922391BB6F5F7F4F14966830710509F0C0
:1002F000ADCFDF91CF91089510928D00EEE8F0E040
:100300001082118212821382089510929200E3E902
:10031000F0E0108211821282138208958FEF8ABB5F
:100320001BBA87B38F6087BB88B38F6088BB089583
:10033000853391F1A4F4803339F144F48332D1F15F
:100340008A32B1F1811138C08FEF37C0823301F1A9
:10035000ECF08333F9F0843379F589E92EC08933E1
:1003600009F12CF48733D1F0DCF482E826C0823422
:10037000D9F024F4813401F588E81FC08334B1F04A
:100380008434D1F481EA19C080EC17C089EF15C01C
:1003900084EA13C080EB11C082E90FC088EF0DC062
:1003A00080E80BC080E909C083E807C086EC05C07F
:1003B0008EED03C08CE901C086EB8BBB0895AF9234
:1003C000BF92CF92DF92EF92FF920F931F930E9402
:1003D0006D00A0908100B0908200C0908300D0900A
:1003E0008400E0908500F0908600009187001091D5
:1003F00088000E942103A3E60E942A03A1F198F13C
:10040000809180008F5F843018F48093800002C058
:100410001092800088B3807F88BB28B381E090E091
:100420000090800002C0880F991F0A94E2F7822B87
:1004300088BBE0918000F0E0E757FF4F80810E9489
:1004400098010E946D0020938100309382004093B8
:10045000830050938400609385007093860080939E
:100460008700909388001F910F91FF90EF90DF908D
:10047000CF90BF90AF900895E9E8F0E0A3E9B0E035
:100480008C91808311968C911197818312968C9117
:100490001297828313968C9183830895AF92BF92B3
:1004A000CF92DF92EF92FF920F931F93CF93C82FBB
:1004B0000E946D00A0909700B0909800C0909900A5
:1004C000D0909A00E0909B00F0909C0000919D00DD
:1004D00010919E000E94210325333C4041055105A7
:1004E000610571058105910549F140F1E0919200A6
:1004F000F0E0ED56FF4FC083809192008F5F8093B4
:10050000920080919200843028F00E943C020E9468
:10051000850102C00E943C020E946D00209397005A
:10052000309398004093990050939A0060939B00F9
:1005300070939C0080939D0090939E00CF911F919B
:100540000F91FF90EF90DF90CF90BF90AF90089504
:10055000AF92BF92CF92DF92EF92FF920F931F93D1
:100560000E941D01811122C080918D008823F1F02D
:1005700080918D00813019F480918E0001C08AE550
:100580000E944E020E947C010E946D002093970001
:10059000309398004093990050939A0060939B0089
:1005A00070939C0080939D0090939E008091920098
:1005B000882341F10E946D00A0909700B0909800B0
:1005C000C0909900D0909A00E0909B00F0909C0021
:1005D00000919D0010919E000E9421032935324612
:1005E00042405105610571058105910559F050F0B2
:1005F0001F910F91FF90EF90DF90CF90BF90AF9041
:100600000C9485011F910F91FF90EF90DF90CF9098
:10061000BF90AF9008950C943C020E9449000E9444
:1006200010010E948E010E94A8020E94DF01FBCFF0
:100630002A0D3B1D4C1D5D1D6E1D7F1D801F911FD2
:1006400008952A193B094C095D096E097F09800B41
:10065000910B08950024A7FD00942A17300540054A
:10066000500560057005800590050895F894FFCF4A
:1006700064000000000000005A6202000000000058
:100680003738394134353642313233432A30234406
:00000001FF
